{
  "contractName": "BandApp",
  "abi": [
    {
      "constant": true,
      "inputs": [
        {
          "name": "",
          "type": "uint256"
        }
      ],
      "name": "songs",
      "outputs": [
        {
          "name": "songname",
          "type": "string"
        },
        {
          "name": "price",
          "type": "uint256"
        },
        {
          "name": "seller",
          "type": "address"
        },
        {
          "name": "buyer",
          "type": "address"
        }
      ],
      "payable": false,
      "stateMutability": "view",
      "type": "function"
    },
    {
      "constant": true,
      "inputs": [],
      "name": "stopped",
      "outputs": [
        {
          "name": "",
          "type": "bool"
        }
      ],
      "payable": false,
      "stateMutability": "view",
      "type": "function"
    },
    {
      "constant": true,
      "inputs": [],
      "name": "owner",
      "outputs": [
        {
          "name": "",
          "type": "address"
        }
      ],
      "payable": false,
      "stateMutability": "view",
      "type": "function"
    },
    {
      "constant": true,
      "inputs": [
        {
          "name": "",
          "type": "uint256"
        }
      ],
      "name": "bandMgrs",
      "outputs": [
        {
          "name": "",
          "type": "address"
        }
      ],
      "payable": false,
      "stateMutability": "view",
      "type": "function"
    },
    {
      "constant": true,
      "inputs": [],
      "name": "bandMgrIndex",
      "outputs": [
        {
          "name": "",
          "type": "uint256"
        }
      ],
      "payable": false,
      "stateMutability": "view",
      "type": "function"
    },
    {
      "constant": true,
      "inputs": [],
      "name": "songIndex",
      "outputs": [
        {
          "name": "",
          "type": "uint256"
        }
      ],
      "payable": false,
      "stateMutability": "view",
      "type": "function"
    },
    {
      "inputs": [],
      "payable": false,
      "stateMutability": "nonpayable",
      "type": "constructor"
    },
    {
      "constant": false,
      "inputs": [
        {
          "name": "bandMgraddress",
          "type": "address"
        }
      ],
      "name": "addMgr",
      "outputs": [],
      "payable": false,
      "stateMutability": "nonpayable",
      "type": "function"
    },
    {
      "constant": false,
      "inputs": [
        {
          "name": "_songname",
          "type": "string"
        },
        {
          "name": "_price",
          "type": "uint256"
        }
      ],
      "name": "addSong",
      "outputs": [],
      "payable": false,
      "stateMutability": "nonpayable",
      "type": "function"
    },
    {
      "constant": false,
      "inputs": [
        {
          "name": "_seller",
          "type": "address"
        }
      ],
      "name": "buySong",
      "outputs": [],
      "payable": true,
      "stateMutability": "payable",
      "type": "function"
    },
    {
      "constant": false,
      "inputs": [],
      "name": "circuitBreakerPressed",
      "outputs": [],
      "payable": false,
      "stateMutability": "nonpayable",
      "type": "function"
    }
  ],
  "bytecode": "0x6080604052600060015560006002556000600560006101000a81548160ff02191690831515021790555034801561003557600080fd5b5033600360006101000a81548173ffffffffffffffffffffffffffffffffffffffff021916908373ffffffffffffffffffffffffffffffffffffffff16021790555061090b806100866000396000f3006080604052600436106100a4576000357c0100000000000000000000000000000000000000000000000000000000900463ffffffff1680630f110530146100a95780632fc872cd1461011c578063304cff301461015f57806333f6203b1461027257806375f12b21146102895780638da5cb5b146102b8578063f17946921461030f578063f53c3c9c14610345578063fc7f3421146103b2578063fd0ec096146103dd575b600080fd5b3480156100b557600080fd5b5061011a600480360381019080803590602001908201803590602001908080601f016020809104026020016040519081016040528093929190818152602001838380828437820191505050505050919291929080359060200190929190505050610408565b005b34801561012857600080fd5b5061015d600480360381019080803573ffffffffffffffffffffffffffffffffffffffff16906020019092919050505061053a565b005b34801561016b57600080fd5b5061018a60048036038101908080359060200190929190505050610607565b60405180806020018581526020018473ffffffffffffffffffffffffffffffffffffffff1673ffffffffffffffffffffffffffffffffffffffff1681526020018373ffffffffffffffffffffffffffffffffffffffff1673ffffffffffffffffffffffffffffffffffffffff168152602001828103825286818151815260200191508051906020019080838360005b83811015610234578082015181840152602081019050610219565b50505050905090810190601f1680156102615780820380516001836020036101000a031916815260200191505b509550505050505060405180910390f35b34801561027e57600080fd5b5061028761070f565b005b34801561029557600080fd5b5061029e61073b565b604051808215151515815260200191505060405180910390f35b3480156102c457600080fd5b506102cd61074e565b604051808273ffffffffffffffffffffffffffffffffffffffff1673ffffffffffffffffffffffffffffffffffffffff16815260200191505060405180910390f35b610343600480360381019080803573ffffffffffffffffffffffffffffffffffffffff169060200190929190505050610774565b005b34801561035157600080fd5b50610370600480360381019080803590602001909291905050506107da565b604051808273ffffffffffffffffffffffffffffffffffffffff1673ffffffffffffffffffffffffffffffffffffffff16815260200191505060405180910390f35b3480156103be57600080fd5b506103c761080d565b6040518082815260200191505060405180910390f35b3480156103e957600080fd5b506103f2610813565b6040518082815260200191505060405180910390f35b6080604051908101604052808381526020018281526020013373ffffffffffffffffffffffffffffffffffffffff168152602001600073ffffffffffffffffffffffffffffffffffffffff16815250600460006002548152602001908152602001600020600082015181600001908051906020019061048892919061083a565b506020820151816001015560408201518160020160006101000a81548173ffffffffffffffffffffffffffffffffffffffff021916908373ffffffffffffffffffffffffffffffffffffffff16021790555060608201518160030160006101000a81548173ffffffffffffffffffffffffffffffffffffffff021916908373ffffffffffffffffffffffffffffffffffffffff1602179055509050506002600081548092919060010191905055505050565b3373ffffffffffffffffffffffffffffffffffffffff16600360009054906101000a900473ffffffffffffffffffffffffffffffffffffffff1673ffffffffffffffffffffffffffffffffffffffff1614151561059657600080fd5b80600080600154815260200190815260200160002060006101000a81548173ffffffffffffffffffffffffffffffffffffffff021916908373ffffffffffffffffffffffffffffffffffffffff1602179055506105fe6001805461081990919063ffffffff16565b60018190555050565b6004602052806000526040600020600091509050806000018054600181600116156101000203166002900480601f0160208091040260200160405190810160405280929190818152602001828054600181600116156101000203166002900480156106b35780601f10610688576101008083540402835291602001916106b3565b820191906000526020600020905b81548152906001019060200180831161069657829003601f168201915b5050505050908060010154908060020160009054906101000a900473ffffffffffffffffffffffffffffffffffffffff16908060030160009054906101000a900473ffffffffffffffffffffffffffffffffffffffff16905084565b600560009054906101000a900460ff1615600560006101000a81548160ff021916908315150217905550565b600560009054906101000a900460ff1681565b600360009054906101000a900473ffffffffffffffffffffffffffffffffffffffff1681565b600560009054906101000a900460ff1615151561079057600080fd5b8073ffffffffffffffffffffffffffffffffffffffff166108fc349081150290604051600060405180830381858888f193505050501580156107d6573d6000803e3d6000fd5b5050565b60006020528060005260406000206000915054906101000a900473ffffffffffffffffffffffffffffffffffffffff1681565b60015481565b60025481565b600080828401905083811015151561083057600080fd5b8091505092915050565b828054600181600116156101000203166002900490600052602060002090601f016020900481019282601f1061087b57805160ff19168380011785556108a9565b828001600101855582156108a9579182015b828111156108a857825182559160200191906001019061088d565b5b5090506108b691906108ba565b5090565b6108dc91905b808211156108d85760008160009055506001016108c0565b5090565b905600a165627a7a72305820316f8a428ba952a46d87880e39c3a88549eae0d8de3a038c7f54e7be82bc7efd0029",
  "source": "pragma solidity ^0.4.17;\n\nimport \"./SafeMath.sol\";\n\n/** @title Band Merchandise Web Store Application */\ncontract BandApp {\n    using SafeMath for uint256;\n\n    mapping (uint => address) public bandMgrs;\n    uint public bandMgrIndex = 0;\n    uint public songIndex = 0;\n    address public owner;\n\n    struct Song {\n    string songname;\n    uint price;\n    address seller;\n    address buyer;\n    }\n\n    mapping ( uint => Song) public songs;\n    bool public stopped = false;\n\n    modifier stopInEmergency { require(!stopped); _; }\n\n    //currently commented out to investigate other ways of verifying band manager without looping through an array\n    modifier isBandMgr { \n        \n        /* for (i=0;i<bandMgrIndex+1; i++){\n            if (msg.sender == bandMgrs[bandMgrIndex]){\n            found = 1\n            }\n            }\n        require(found>=1);\n        */\n        _;\n    }\n\n    constructor() public {\n        owner = msg.sender;\n    }\n\n    /**\n     * @dev Adds admin inputted address to bandMgrs mapping\n     * @param bandMgraddress Account address of band manager to be added\n     */\n    function addMgr (address bandMgraddress) public {\n        require(owner == msg.sender);\n        bandMgrs[bandMgrIndex] = bandMgraddress;\n        bandMgrIndex = bandMgrIndex.add(1);\n        //bandMgrIndex++;\n    }\n    \n    /**\n     * @dev Band manager input song name and song price into songs mapping\n     * @param _songname The name of the song being added by the band manager\n     * @param _price The purchase price of the song in ether\n     */\n    function addSong (string _songname, uint  _price) public {\n        songs[songIndex] = Song({songname: _songname, price: _price, seller: msg.sender, buyer: 0 });\n        songIndex++;\n    }\n\n    /**\n     * @dev Function for when a visitor to the app purchases a song, but will not run if the admin pauses the contract in an emergency\n     * @param _seller Account address of the band manager who added the song being bought\n     */\n    function buySong (address _seller) stopInEmergency public payable {\n        _seller.transfer(msg.value);\n\n    }\n\n    /**\n     * @dev toggles the value of stopped if run\n     */\n    function circuitBreakerPressed () public {\n        stopped = !stopped;\n    }\n}",
  "sourcePath": "/home/slap/final-project/contracts/BandApp.sol",
  "compiler": {
    "name": "solc",
    "version": "0.4.24+commit.e67f0147.Emscripten.clang"
  },
  "schemaVersion": "2.0.1",
  "updatedAt": "2019-01-27T20:10:28.915Z"
}